:100000000C9469070C9491070C9491070C94910738
:100010000C9491070C9491070C9491070C94910700
:100020000C9491070C9491070C9491070C947625ED
:100030000C94A4250C9491070C9491070C949107AF
:100040000C9491070C9491070C9491070C949107D0
:100050000C9491070C9491070C9491070C949107C0
:100060000C9491070C9491071A181E181C1822184A
:1000700020182418261829182C1831186D5B502CBC
:1000800025642C25585D0A002C25585D00705B25E1
:10009000735D0A007000436F6D6D616E64206E6F5A
:1000A0007420696D706C656D656E746564203A29A5
:1000B00000434647202D20494E464F006900720AF2
:1000C000007200635B25642C25642C25645D0A00A6
:1000D000434647202D2047524F55505B25645D20F5
:1000E000504152414D455445525B25645D2041527B
:1000F00047554D454E545B25645D00635B25752C6B
:1001000025752C25755D00615B25585D0A00434609
:1001100047202D204D414320414444524553535BD9
:1001200025585D00615B25585D00615B25585D0ABF
:100130000061004D41494E205374617274696E67CD
:10014000206C6F6F70004D41494E20537461727482
:10015000696E6720564C43004D41494E20736574CB
:1001600074696E67207570204D4143207061726123
:100170006D6574657273004D41494E2073657474EA
:10018000696E672075702050485920706172616DEA
:100190006574657273004D41494E207374617274C9
:1001A000696E6720766C63006D5B25635D0A004DA8
:1001B00041494E204672616D6520646F6E652E0068
:1001C0006D5B25635D0A004D41494E204672616DAD
:1001D000652073656E742E006D5B25632C25635D51
:1001E0000A005D0A006D5B25632C25632C004D41E0
:1001F000494E205265636569766564204672616D7B
:10020000652C20525353493A256400212121424153
:10021000444953522121210050494E4D4150205410
:100220006F6F206D616E792070696E7320616C6CE8
:100230006F63617465642E20496E637265617365D6
:1002400020274D41585F50494E53272E0050494EAC
:100250004D4150204D617070696E672070696E73FA
:100260002E202841565229004368616E6E656C202D
:100270005365742070696E73004368616E6E656CBF
:1002800020496E6974204750494F004368616E6E83
:10029000656C20416464207061747465726E0055F1
:1002A0006E7265636F676E697A6564204D414320A5
:1002B000706172616D657465722E005254535F54A3
:1002C0004852532073657420746F2025642E0043B8
:1002D000575F4D41582073657420746F2025642E3C
:1002E0000043575F4D494E2073657420746F20257D
:1002F000642E00444946532073657420746F202592
:10030000642E0052455452414E532073657420743C
:100310006F2025642E004D414320525453207265B6
:100320006365697665642C20646566657220666F16
:1003300072202564206D732E004D4143204869646E
:1003400064656E2073746174696F6E2C20646566D9
:10035000657220666F72202564206D732E004D41FA
:1003600043204D41432052545320726563656976A2
:1003700065642E004D4143204D414320435453209A
:1003800072656365697665642E004D4143204D4179
:10039000432041434B20746F6F206C6174652E00C5
:1003A0004D4143204D41432041434B2072656365DD
:1003B000697665642E004D4143204D4143206461C0
:1003C0007461207265636569766564202825582DFF
:1003D0003E25582C2025642C2025582C20256429C6
:1003E0002E004D41432073656E64696E6720414362
:1003F0004B004D4143206672616D652072656164FA
:1004000079004D4143204D4143205254532074699B
:100410006D656F75742E004D4143204D414320643E
:100420006174612074696D656F75742E004D414370
:10043000204D41432041434B2073656E742E004D87
:100440004143204D4143204354532073656E742E25
:10045000004D4143204D4143205254532073656E5B
:10046000742E004D4143204D41432064617461204E
:1004700073656E742E004D414320446F6E6520738A
:10048000656E64696E672E004D4143204F75746739
:100490006F696E67204D4143206672616D6520640F
:1004A000726F707065642E20427566666572206694
:1004B000756C6C2E004D4143205061796C6F616406
:1004C00020746F206C617267652E004D4143204699
:1004D00072616D652070726570617265642E004D89
:1004E000414320507265706172696E6720525453A7
:1004F0002E004D41432053656E64696E6720646130
:1005000074612E004D4143204469737061746368C7
:10051000696E67204354532E004D41432053656E4E
:1005200064696E67204354532E004D414320446953
:10053000737061746368696E67205254532E004D66
:1005400041432053656E64696E67205254532E00F8
:100550004D41432053686F756C64206E6F74206842
:10056000617070656E212121004D41432046696C08
:100570006C206275666665722E004D4143204669A7
:100580006E64206275666665722E004D414320449C
:1005900069737061746368696E67206672616D6506
:1005A0002E004D414320436F7079207061796C6F4C
:1005B00061642E004D41432046696C6C2068656182
:1005C0006465722E004D41432050726570617269FE
:1005D0006E67206672616D652E004D414320676530
:1005E0006E65726174656420616464726573733AE8
:1005F0002030782558004D414320696E69740050C1
:100600004859204E554D5F4552524F525320736505
:100610007420746F2025642E00504859207365742F
:1006200074696E67204E554D5F4552524F525320AC
:10063000746F20612076616C7565206869676865F4
:1006400072207468616E20256420284645435F4E01
:10065000554D5F504152495459202F2032292E00C8
:10066000504859205365742050485920464543202E
:100670007468726573686F6C6420746F2025640001
:100680005048592043524320455252005048592067
:100690004469737061746368696E67206672616D26
:1006A0006520746F205048594800504859204361D4
:1006B0006C63204352432E0050485920507265709D
:1006C000617265206865616465722E00504859202A
:1006D00046454320616464204D4143204352432EEC
:1006E000005048592041646465642025642070618D
:1006F000726974792062797465732E0050485920AC
:1007000046454320656E636F6465205048592070EC
:1007100061796C6F61642E00556E7265636F676EF0
:10072000697A65642050485920706172616D657402
:1007300065723A2025640050485948204469736125
:10074000626C65206C6967687400504859482045A0
:100750006E61626C65206C69676874005048594826
:100760002053657420504859206D656469756D206B
:1007700062757379207468726573686F6C64207435
:100780006F20256400504859482053657420504814
:100790005920707265616D626C6520746F202564EC
:1007A00000496E76616C69642073656E6465724998
:1007B000642E0050485948204E657720646174616A
:1007C000207061636B65742E0050485948204E6557
:1007D0007720636F6E74726F6C207061636B6574E9
:1007E0002E005048594820446973706174636869E9
:1007F0006E67206672616D652E00735B25632C2524
:10080000732C25582D3E25582C2564282564292C29
:1008100025642C25642C25642C256C2C256C5D0A04
:1008200000546F6F206D616E79206368616E6E6534
:100830006C732E00446F6E277420776F7272792C60
:100840002062652068617070792E0042757420778F
:1008500068656E20796F7520776F72727920796F75
:1008600075206D616B6520697420646F75626C65BD
:1008700000496E206576657279206C69666520771F
:1008800065206861766520736F6D652074726F7581
:10089000626C65200070616E696321207768616118
:1008A00061612E2E2E2E00617373657274696F6EF6
:1008B000206661696C6564203A272800212121495E
:1008C0006C6C6567616C466F726D617421212100EB
:1008D0005B25735D5B256C5D09004C4F47474552B6
:1008E00020536574206C6F6767696E67206C65764E
:1008F000656C20746F202564205B25635D00436177
:100900006E6E6F74207265676973746572205346EA
:1009100044206D6174636865722C204D41585F42BC
:100920004541434F4E5320746F6F20736D616C6C63
:100930003F004641494C454420544F2046494C4CC9
:100940002042495442554646455200564C43204F9A
:100950006E6C79206368616E6E656C73206F6620C3
:100960007468652073616D65207479706520616CB1
:100970006C6F7765642E00564C432053746172741B
:10098000696E67205048594800496E76616C696409
:10099000206C6F676C6576656C20256C00564C4347
:1009A000207265676973746572696E6720636F6E24
:1009B0006669672068616E646C657200564C4320FE
:1009C000496E697469616C6973696E67204D414352
:1009D00000564C4320496E697469616C6973696E95
:1009E000672046454300564C4320496E697469614F
:1009F0006C6973696E67205048594800564C432013
:100A0000476174686572696E6720656E74726F7095
:100A10007900434647206E6F2068616E646C657292
:100A200020666F756E6420666F722067726F7570D6
:100A30002025640054494D455220696E74657272D8
:100A40007570747320656E61626C65640054494D05
:100A5000455220636C6F636B20656E61626C6564E8
:100A60000054494D455220257300616E616C6F67DB
:100A70002070696E206E6F7420666F756E64210041
:100A8000434F524520726573657474696E67004701
:100A900050494F204D617070656420256920746F46
:100AA0002025690023000023000123000223000306
:100AB0002300042300052300062300072600002648
:100AC0000001260002260003260004260005260059
:100AD000062600062900002900012900022900033A
:100AE0002900042900052900062900074368616ED2
:100AF0006E656C205061747465726E2073697A65DE
:100B0000207472756E63617465642C207761732044
:100B1000746F6F206C6F6E672E00464543205374D0
:100B2000617274206465636F64696E672E00464568
:100B300043204D4143204352432077726F6E672E0E
:100B400000464543204D414320435243206D61748C
:100B5000636865642E004645432063616C63756C71
:100B600061746564204D4143204352433A203078FC
:100B7000255825580046454320546F6F206D616EFF
:100B800079206572726F72732C2063616E6E6F7460
:100B9000207265636F7665722E0046454320436F71
:100BA00072726563746564202564206572726F7269
:100BB000732E0001020408102040801D3A74E8CD15
:100BC0008713264C982D5AB475EAC98F03060C1862
:100BD0003060C09D274E9C254A94356AD4B577EE87
:100BE000C19F23468C050A142850A05DBA69D2B96A
:100BF0006FDEA15FBE61C2992F5EBC65CA890F1E00
:100C00003C78F0FDE7D3BB6BD6B17FFEE1DFA35BA1
:100C1000B671E2D9AF4386112244880D1A3468D0E8
:100C2000BD67CE811F3E7CF8EDC7933B76ECC59740
:100C30003366CC85172E5CB86DDAA94F9E214284AD
:100C4000152A54A84D9A2952A455AA49923972E4FA
:100C5000D5B773E6D1BF63C6913F7EFCE5D7B37BC2
:100C6000F6F1FFE3DBAB4B963162C495376EDCA542
:100C700057AE4182193264C88D070E1C3870E0DD12
:100C8000A753A651A259B279F2F9EFC39B2B56ACE8
:100C9000458A09122448903D7AF4F5F7F3FBEBCB33
:100CA0008B0B162C58B07DFAE9CF831B366CD8AD70
:100CB000478E01020408102040801D3A74E8CD8759
:100CC00013264C982D5AB475EAC98F03060C1830B8
:100CD00060C09D274E9C254A94356AD4B577EEC1F5
:100CE0009F23468C050A142850A05DBA69D2B96FBB
:100CF000DEA15FBE61C2992F5EBC65CA890F1E3C32
:100D000078F0FDE7D3BB6BD6B17FFEE1DFA35BB626
:100D100071E2D9AF4386112244880D1A3468D0BDE0
:100D200067CE811F3E7CF8EDC7933B76ECC59733C9
:100D300066CC85172E5CB86DDAA94F9E21428415CA
:100D40002A54A84D9A2952A455AA49923972E4D539
:100D5000B773E6D1BF63C6913F7EFCE5D7B37BF6A0
:100D6000F1FFE3DBAB4B963162C495376EDCA557E0
:100D7000AE4182193264C88D070E1C3870E0DDA7C1
:100D800053A651A259B279F2F9EFC39B2B56AC4549
:100D90008A09122448903D7AF4F5F7F3FBEBCB8BEC
:100DA0000B162C58B07DFAE9CF831B366CD8AD47B3
:100DB0008E01020000011902321AC603DF33EE1B56
:100DC00068C74B0464E00E348DEF811CC169F8C81C
:100DD000084C71058A652FE1240F2135938EDAF0D6
:100DE0001282451DB5C27D6A27F9B9C99A09784DA5
:100DF000E472A606BF8B6266DD30FDE29825B31073
:100E000091228836D094CE8F96DBBDF1D2135C83CD
:100E10003846401E42B6A3C3487E6E6B3A2854FA49
:100E200085BA3DCA5E9B9F0A15792B4ED4E5AC73FB
:100E3000F3A7570770C0F78C80630D674ADEED316A
:100E4000C5FE18E3A5997726B8B47C114492D9233E
:100E500020892E373FD15B95BCCFCD908797B2DCF0
:100E6000FCBE61F256D3AB142A5D9E843C395347D5
:100E70006D41A21F2D43D8B77BA476C41749EC7FE0
:100E80000C6FF66CA13B52299D55AAFB6086B1BB45
:100E9000CC3E5ACB595FB09CA9A0510BF516EB7A0A
:100EA000752CD74FAED5E9E6E7ADE874D6F4EAA8DD
:100EB0005058AF50414E49433A20427566666572BC
:100EC00020556E646572666C6F772100CF14F7173A
:100ED000BD1B11241FBECFEFD8E0DEBFCDBF11E098
:100EE000A0E0B1E0E6E7F1E602C005900D92A83877
:100EF000B107D9F717E0A8E8B1E001C01D92A23808
:100F0000B107E1F71EE0C2EDDEE004C02297FE016A
:100F10000E944130CC3CD107C9F70E94250B0C94AC
:100F2000B9300C94C40AFC0180E090E0662381F0A3
:100F30009C0143E0220F331F4A95E1F7880F991F68
:100F4000820F931FC0972191820F911D6150EECFA8
:100F50000895282FFC018E2F821B919190539A3077
:100F6000D0F3089590ED980F9A3010F4892F0895DA
:100F70009FEB980F963010F080E008958753089506
:100F80008F929F92AF92BF92CF92DF92EF92FF9299
:100F90000F931F93CF93DF93CDB7DEB70F851889DB
:100FA000C988DA887E0183E1E80EF11CF60184919C
:100FB000882309F4ADC0853209F09EC0FFEFCF1A37
:100FC000DF0AF6018491843641F188F4883509F40A
:100FD0004EC0833609F0A3C0D701ED91FC91D80132
:100FE0008D918D018083F70132967F018DC083370B
:100FF00009F458C0853709F092C05701F2E0AF0EEE
:10100000B11CC8010E94A907982E682FC8010E9430
:101010009307D701ED91FC9119C05701B2E0AB0ED7
:10102000B11CF701E080F180D8018C918D3289F4F8
:101030000F5F1F4FC8010E94A907982E682FC80193
:101040000E949307919581959109F701918380837F
:101050000BC0C6010E94A907982E682FC8010E94E4
:101060009307D7018D939C93090D111D19C057014A
:10107000B2E0AB0EB11CF701E080F180D8018C9199
:101080000E94B207982EF80181810E94B207F0E118
:101090009F9E90011124822BD7018C930E5F1F4FCE
:1010A000750132C05701B2E0AB0EB11CF701808070
:1010B0009180D8018C918232A1F50F5F1F4FF8010A
:1010C00080E09191923231F0992359F18F3749F1B3
:1010D0008F5FF7CFE82EFF24E7FCF094A701B8015B
:1010E000C4010E945730F401EE0DFF1D10820E0D59
:1010F0001F1D0F5F1F4FD4CFF6019491D8018C9123
:10110000981311C00F5F1F4FBFEFCB1ADB0A4ECFF2
:1011100081E0D8019C91911107C080E005C082E078
:1011200003C083E001C081E0DF91CF911F910F9157
:10113000FF90EF90DF90CF90BF90AF909F908F90F7
:101140000895FF920F931F93CF93DF93CDB7DEB730
:1011500027970FB6F894DEBF0FBECDBFFC012081EC
:10116000293609F4DCC030F4213691F0233609F435
:1011700062C056C1203709F4F4C0223709F4B3C065
:101180002D3609F04DC18C010E5F1F4F60E00CC180
:10119000FC012181211118C021E331E03F932F93FD
:1011A0009F938F930E94C007F82E0F900F900F907F
:1011B0000F90811137C10E941C101F928F938AE2F9
:1011C00091E09F938F93E4C09E012F5F3F4F3F9329
:1011D0002F9324E231E03F932F939F938F930E94AC
:1011E000C007F82E0F900F900F900F900F900F9058
:1011F000811118C1298130E040E050E065E070E0E5
:1012000081E090E00E943C2589811F928F938EE0BF
:1012100091E09F938F931F9284E08F930E94C81A4E
:101220000E941C101F928F9387E091E09F938F93F1
:101230000E948C1B50C09E012F5F3F4F3F932F9306
:101240009E012D5F3F4F3F932F939E012B5F3F4F9A
:101250003F932F932BEF30E03F932F939F938F93E8
:101260000E94C007F82E0FB6F894DEBF0FBECDBFA8
:101270008111D8C029813A8140E050E06B817C81A6
:101280008D819E810E943C258A818F9389818F93D5
:101290008C818F938B818F938E818F938D818F9390
:1012A00080ED90E09F938F931F9284E08F930E9434
:1012B000C81A8A818F9389818F938C818F938B81B8
:1012C0008F938E818F938D818F9383EC90E09F938A
:1012D0008F930E948C1B0E94C9190FB6F894DEBF31
:1012E0000FBECDBF9FC021EC30E03F932F939F9363
:1012F0008F930E94C007F82E0F900F900F900F90C1
:10130000811190C08EEB90E09F938F930E948C1B75
:101310000E94C9190E9474260F900F9083C02CEB75
:1013200030E03F932F939F938F930E94C007F82E36
:101330000F900F900F900F90811174C081EB90E08F
:101340009F938F931F9284E08F930E94C81A86E91F
:1013500090E09F938F931F9282E08F930E94C81A10
:10136000BACF24E930E03F932F939F938F930E944D
:10137000C007F82E0F900F900F900F90811152C060
:101380008EE191E09F938F932DE830E03F932F9370
:101390000E948C1B0E94C9190F900F900F900F9004
:1013A00041C06F3F49F06F5F262F30E0F801E20F38
:1013B000F31F80818111F5CFCE0101969F938F930A
:1013C00088E890E09F938F932F5F3F4F200F311F4E
:1013D0003F932F936F830E94C007F82E0F900F90BA
:1013E0000F900F900F900F906F8181111BC049815A
:1013F000C8010E943225F82E89811F928F931F9277
:10140000FF922CE730E03F932F930E948C1B0E94A9
:10141000C9190F900F900F900F900F900F9002C06E
:10142000FF24F3948F2D27960FB6F894DEBF0FBEDE
:10143000CDBFDF91CF911F910F91FF9008958FEA5B
:1014400091E09F938F931F9285E08F930E94C81A1B
:101450001F9284E48F9388EA91E09F938F930E9478
:101460008C1B8DB79EB708960FB6F8949EBF0FBE23
:101470008DBF0C94C919DF92EF92FF920F931F93C7
:10148000CF93DF93F82ED92EE62EEA011F930F9308
:101490002EEE31E03F932F931F9285E08F930E94B1
:1014A000C81A0F900F900F900F900F900F90C130AF
:1014B000D10549F5809101011F928F931F9282E51A
:1014C0008F9325EE31E03F932F930E948C1B0E9457
:1014D000C9191F2D0F900F900F900F900F900F9024
:1014E000CF2DDD2D8C2F811B8E1520F489910E942C
:1014F000381AF8CF82EE91E09F938F930E948C1B55
:101500000F900F9014C0C050DF4F88811F928F93AF
:101510001F9282E58F9388ED91E09F938F930E94B5
:101520008C1B0F900F900F900F900F900F900E94B8
:10153000C91980E00E948918DF91CF911F910F9106
:10154000FF90EF90DF900C94C91987EC91E09F9386
:101550008F931F9285E08F930E94C81A1F9284E593
:101560008F9380EC91E09F938F930E948C1B81E07E
:101570000E9489188DB79EB708960FB6F8949EBF43
:101580000FBE8DBF0C94C9191F920F920FB60F9208
:1015900011242F933F934F935F936F937F938F9378
:1015A0009F93AF93BF93EF93FF938BE092E09F9352
:1015B0008F931F9281E08F930E94C81A0E947D1919
:1015C0000F900F900F900F90FF91EF91BF91AF91FF
:1015D0009F918F917F916F915F914F913F912F914B
:1015E0000F900FBE0F901F9018950F931F93CF93DE
:1015F000DF931F92CDB7DEB700E010E0CE01019679
:101600000E94692789818A30C9F40115110541F0CA
:10161000F801E957FE4F90819C3511F48083EECF9D
:10162000F801E857FE4F108288E891E00E94A10877
:101630000F90DF91CF911F910F910895F801E85716
:10164000FE4F80830F5F1F4FD9CFCF93DF93CDB76E
:10165000DEB7A9970FB6F894DEBF0FBECDBF80E00E
:1016600090E00E949A1B0E94392486E991E09F93A2
:101670008F931F9213E01F930E94C81A0E94C919EA
:101680000E94D20B87E791E09F938F931F921F9345
:101690000E94C81A0E94C919CE0101960E94850CA9
:1016A000409185025091860260918302709184027C
:1016B0009E012F5F3F4F80E00E94A92488E591E0C2
:1016C0009F938F931F921F930E94C81A0E94C9195B
:1016D00024E130E040E050E062E070E080E090E043
:1016E0000E943C258BE39AE00E94A3248FE19AE0BC
:1016F0000E94A72485EA9AE00E94A52486E491E04E
:101700009F938F931F921F930E94C81A0E94C9191A
:101710000E94942483E391E09F938F931F921F93E1
:101720000E94C81A0E94C9190FB6F894DEBF0FBEF6
:10173000CDBF0E948C240E9453278823D1F30E949E
:10174000F50AF7CFCF93DF9300D0CDB7DEB7209166
:101750005A022A3098F028E132E03F932F931F92EB
:1017600021E02F9389839A830E94C81A0E948419CA
:101770000F900F900F900F909A81898120915A02BB
:1017800031E0320F30935A0230E0B901660F771F13
:10179000620F731F655A7D4F0F900F90DF91CF91AD
:1017A0000C94A9268DE492E09F938F931F9284E07E
:1017B0008F930E94C81A81E290E00E94A20B90933E
:1017C00086028093850280E290E00E94A20B9093B3
:1017D00084028093830282E390E00E94A20B9093A4
:1017E00082028093810283E390E00E94A20B909397
:1017F000800280937F0284E390E00E94A20B90938A
:101800007E0280937D0285E390E00E94A20B90937C
:101810007C0280937B0286E390E00E94A20B90936F
:101820007A02809379020F900F900F900F90089595
:101830000895FC0181E0458D568D278D30A1241738
:10184000350708F080E00895FC0121A132A183A1B1
:1018500094A18217930728F02817390720F080E019
:1018600003C086EF01C08AE0992787FD909508950F
:10187000CF93DF93EC0161E08FA198A50E949126A0
:101880008FA198A50E949D268DA19EA1DF91CF9149
:101890000C949726CF93DF93EC0161E08FA198A57C
:1018A0000E9491268FA198A50E949D268DA19EA1A0
:1018B000DF91CF910C949D26CF93DF93EC018FA104
:1018C00098A50E9423268DA19EA10E949D268FA1EE
:1018D00098A50E949D2661E08FA198A50E9491265F
:1018E0008FA198A50E94972661E070E080E090E0CB
:1018F0000E942F1C60E08FA198A50E9491268FA1C5
:1019000098A5DF91CF910C949D26CF93DF93EC01A6
:101910000E948B288BE291E0998388831EA21DA2EE
:1019200018A61FA2DF91CF910895EF92FF920F9317
:101930001F93CF93DF93EC018A0179010E946C28F9
:101940008BE291E099838883FEA2EDA218A70FA3F2
:101950008BE892E09F938F931F9216E01F930E9453
:10196000C81A21E030E041E065E271E0CE010E945A
:10197000952889E792E09F938F931F921F930E946F
:10198000C81A0E94902688E692E09F938F931F9238
:101990001F930E94C81A8DA19EA10E9497268FA115
:1019A00098A50E949D2661E08FA198A50E9491268E
:1019B0008DB79EB70C960FB6F8949EBF0FBE8DBF25
:1019C00061E08DA19EA1DF91CF911F910F91FF90BA
:1019D000EF900C94912686EF95E09F938F931F9242
:1019E00086E08F930E94C81A80E090E00E94FB2658
:1019F0000F900F900F900F909FEF980F9E3F18F051
:101A00000E949C1CF9CF80938F021F928F938AEDC6
:101A100095E09F938F931F9286E08F930E94C81A40
:101A2000E2E9F2E00F900F900F900F900F900F905F
:101A30008FEF8083329692E0E63AF907D1F7109261
:101A4000A8021092A7021092BA021092B902109244
:101A5000CC021092CB021092DE021092DD021092A4
:101A6000F0021092EF020895982F907285FF0BC03C
:101A700070E088EC90E00E94AA2F88E090E00E943D
:101A8000AA2F98E0960F892F0895AF92BF92CF9218
:101A9000DF92EF92FF920F931F93CF93DF93F82E75
:101AA000192FB62ED42EA22E85EC95E09F938F93FE
:101AB0001F9286E08F930E94C81AEFEFEE0D0F90F1
:101AC0000F900F900F90E43040F4F0E0EE0FFF1F06
:101AD000E95CFE4FC081D18102C0C0E0D0E084EB60
:101AE00095E09F938F931F9286E0C82ECF920E941D
:101AF000C81AE882A98280918F028A830B8382EAC6
:101B000095E09F938F931F92CF920E94C81A6B2DDE
:101B100070E08DB79EB708960FB6F8949EBF0FBEC3
:101B20008DBFA0E0B0E08D2D90E0A817B907B4F408
:101B3000CF2CD12E20E030E0261737075CF4F601D9
:101B400001916F01AE01420F531FFA0104832F5F11
:101B50003F4FF2CF1196C60FD71FE7CFDF91CF913E
:101B60001F910F91FF90EF90DF90CF90BF90AF90BB
:101B70000895AF92BF92CF92DF92EF92FF920F93B0
:101B80001F93CF93DF936C01A62EB42EFC01C1816D
:101B90008BE895E09F938F931F9286E08F930E942E
:101BA000C81A0F900F900F900F90F1E0BF1621F020
:101BB00083E0B81639F014C080910501A81610F022
:101BC000CF3F71F480910803909109030E947A1C21
:101BD0007C0100910A0110910B01005F1F4F04C0AE
:101BE00000E010E0E12CF12C8AE795E09F938F93C1
:101BF0001F9286E08F930E94C81AE7EAF2E00F90E6
:101C00000F900F900F9020E030E080819181892B20
:101C100049F482E1829FE001839FD00D1124CA55CF
:101C2000DD4F08C02F5F3F4F72962530310569F7B1
:101C3000C0E0D0E089E695E09F938F931F9286E005
:101C40008F930E94C81A0F900F900F900F902097BB
:101C500059F124E02A0D809102038883DA82C98237
:101C60002C83AB82BD821F830E83F986E886809128
:101C70000803909109039B878A87C20ED11CDD86D9
:101C8000CC860E940A236E877F87888B998BCE0132
:101C9000DF91CF911F910F91FF90EF90DF90CF9048
:101CA000BF90AF900C94D81480E595E09F938F93EC
:101CB0001F9281E08F930E94C81A0F900F900F908F
:101CC0000F90DF91CF911F910F91FF90EF90DF90D8
:101CD000CF90BF90AF900895EF920F9322E0E22E45
:101CE000062F282F40E060E080E090E00E94450D44
:101CF00042E060E083E393E00F91EF900C94B90D24
:101D0000EF920F93CF93DF9300D0CDB7DEB7042FC0
:101D100069836FE375E07F936F931F9296E09F93C3
:101D20008A830E94C81A33E0E32E8A81282F41E07B
:101D300061E0CE0101960E94450D8AE295E09F93F5
:101D40008F931F9284E08F930E94C81A43E061E052
:101D500089E193E00E94B90D0FB6F894DEBF0FBE83
:101D6000CDBF0F900F90DF91CF910F91EF9008951D
:101D7000EF920F93CF93DF9300D0CDB7DEB7042F50
:101D8000698369E175E07F936F931F9296E09F935B
:101D90008A830E94C81A44E0E42E8A81282F41E0F9
:101DA00061E0CE0101960E94450D84E095E09F938D
:101DB0008F931F9284E08F930E94C81A44E061E0E1
:101DC00083E393E00E94B90D0FB6F894DEBF0FBE17
:101DD000CDBF0F900F90DF91CF910F91EF900895AD
:101DE000CF92DF92EF920F931F93CF93DF9300D0A8
:101DF0001F92CDB7DEB76B01642F102FE2EFF4E036
:101E0000FF93EF931F9206E00F932B836A838983DE
:101E10000E94C81A0F900F900F900F90909114038A
:101E20004B816A81898191116DC0693C08F067C05E
:101E300091E09093140380930203649F802D1124FA
:101E40008093160390910501891710F01F3FF1F45C
:101E5000EE24E39400911303212FC6010E94450D47
:101E600041E0609116038DE493E00E94B90D8091EA
:101E700013038F5F809313031F3F19F41092120313
:101E80002FC080910C01809312032AC0EFEDF4E083
:101E9000FF93EF931F920F934B836A830E94C81A9C
:101EA000EE24E39400911303212F4B816A81C60134
:101EB0000E94450D4091130360911603812F0E94EB
:101EC000800E809113038F5F8093130380910C0128
:101ED00080931203809311030F900F900F900F9037
:101EE0008BEC94E09F938F931F9286E08F930E94D8
:101EF000C81A0F900F900F900F9081E011C085EBE2
:101F000094E002C088E894E09F938F931F9282E050
:101F10008F930E94C81A0F900F900F900F9080E03F
:101F20000F900F900F90DF91CF911F910F91EF9035
:101F3000DF90CF90089580914D03806180934D0391
:101F40006091160380910501681728F441E08DE443
:101F500093E00C94B90D4091500380914E030C9482
:101F6000800EE9E1F3E080818061808343E061E0FD
:101F7000CF010C94B90D909318038093170381E05F
:101F8000809315030895EF92FF920F931F93CF93C1
:101F9000DF9390919002E92EF12C22E932E0A0E04B
:101FA000B0E0AE15BF05ACF4F9012E5F3F4F8901DB
:101FB00002501109E8015881581711F01196F1CF1C
:101FC000309739F040FF03C081818617E1F06183CB
:101FD00018C09A3018F49F5F9093900280919102FC
:101FE00090E0FC01EE0FFF1FEE56FD4F20918F0297
:101FF0002083618301966AE070E00E94AA2F80939B
:10200000910280E001C081E0DF91CF911F910F919B
:10201000FF90EF900895809306036093050350931B
:1020200004034093030381E0809307030895909392
:102030000C0380930B03089580918F0208957F9283
:102040008F929F92AF92BF92CF92DF92EF92FF92C8
:102050000F931F93CF93DF93982EEB01842E722E54
:10206000288130E040E050E060E00E94FB17272D1F
:1020700030E040E050E062E0892D0E94FB17282DFF
:1020800030E040E050E061E0892D0E94FB172B8199
:1020900030E040E050E065E0892D0E94FB17970199
:1020A00040E050E067E0892D0E94FB17980140E076
:1020B00050E066E0892D0E94FB172A8130E040E065
:1020C00050E064E0892D0E94FB17298130E040E058
:1020D00050E063E0892D0E94FB17A601950168E09E
:1020E000892D0E94FB1720E030E0A90169E0892DCD
:1020F0000E94FB17892DDF91CF911F910F91FF90C7
:10210000EF90DF90CF90BF90AF909F908F907F9097
:102110000C943818BF92CF92DF92EF92FF920F93F8
:102120001F93CF93DF93B82EEB0169017A010981E8
:102130001A81F801208130E040E050E060E00E9428
:10214000FB172C8130E040E050E062E08B2D0E94D4
:10215000FB172B8130E040E050E061E08B2D0E94C6
:10216000FB17F801238130E040E050E065E08B2D63
:102170000E94FB172885398540E050E067E08B2DF1
:102180000E94FB172A853B8540E050E066E08B2DDE
:102190000E94FB17F801228130E040E050E064E04B
:1021A0008B2D0E94FB17F801218130E040E050E0C8
:1021B00063E08B2D0E94FB17A701960168E08B2D31
:1021C0000E94FB172E853F854889598969E08B2D30
:1021D0000E94FB178B2DDF91CF911F910F91FF90E4
:1021E000EF90DF90CF90BF900C9438182F923F92D1
:1021F0004F925F926F927F928F929F92AF92BF9217
:10220000CF92DF92EF92FF920F931F93CF93DF93C2
:1022100000D01F92CDB7DEB780910703882389F0E5
:1022200010920703E0918702F0918802309749F0FD
:1022300040910303509104036091050380910603CC
:10224000099580910B0390910C03892B09F4C1C06F
:102250000E940A2360930D0370930E0380930F0373
:102260009093100386E794E09F938F931F9286E0EC
:102270008F930E94C81A20910D0330910E03409154
:102280000F035091100360910B0370910C0381E0D8
:102290000E948A101092010310920003E0910B0338
:1022A000F0910C03A485B5858C910F900F900F9041
:1022B0000F902581223009F443C0C8F4213009F081
:1022C00051C023E634E03F932F931F9294E09F93F5
:1022D00089830E94C81AE0910B03F0910C0363817B
:1022E00089810E94340D90E0885A9F4F20C023308E
:1022F00049F02430B9F58FE394E09F938F931F92B8
:102300002F9325C021E534E03F932F931F9294E053
:102310009F9389830E94C81AE0910B03F0910C03EC
:10232000638189810E94340D90E0805A9F4F909381
:102330000103809300030F900F900F900F901AC02D
:102340008DE294E09F938F931F9284E08F930E947D
:10235000C81A10920D0310920E0310920F031092E0
:102360001003E9CF10920D0310920E0310920F0389
:1023700010921003E0910B03F0910C038581809380
:102380000A03A181B28111961C91128211821092CE
:102390000C0310920B03E0918B02F0918C023097AA
:1023A00009F0099580910A03813099F41F3F89F45F
:1023B00010920D0310920E0310920F03109210034F
:1023C00010921403E0918902F0918A02309709F08B
:1023D000099580910D0390910E03A0910F03B09188
:1023E0001003892B8A2B8B2B09F484C00E940A23AB
:1023F00020910D0330910E03621B730B809100033B
:10240000909101038617970708F074C08091150317
:10241000811170C080910A03813069F587E194E0F1
:102420009F938F931F9284E08F930E94C81A0F90FE
:102430000F900F900F9080911203882309F447C0EA
:1024400080910803909109032091060130910701C2
:102450008217930730F4880F991F90930903809394
:1024600008030E949B0F80911203815080931203F6
:1024700080910C0129C0833099F582E094E09F930C
:102480008F931F9284E08F930E94C81A0F900F9031
:102490000F900F90809111038823C9F08091080359
:1024A000909109032091060130910701821793074B
:1024B00030F4880F991F90930903809308030E94BA
:1024C000B10F8091110381508093110309C01092C4
:1024D0001403E0918902F0918A02309709F009957E
:1024E00010920D0310920E0310920F03109210031E
:1024F00010920A0380911503882309F4B6C182EF74
:1025000093E09F938F931F9286E08F930E94C81A47
:10251000E0911703F0911803208131813B832A83D6
:10252000A780B084C184D28453803CEF530E538281
:10253000AA81BB813C90B32DBF704B2EAA81BB8179
:1025400011962C90119712968C90129713969C903E
:102550006580768020918F020F900F900F900F90E2
:10256000221621F0BFEF2B12ECC003C0EFEF2E12AA
:1025700004C0AA81BB8111962C93E0911703F091BE
:102580001803E12CF12C00E010E02281452D6A8136
:102590007B8180E00E941F10B2E04B1609F471C0ED
:1025A000B41520F0E1E04E1671F1BEC0F3E04F1615
:1025B00009F4A5C024E04212B7C084E793E09F93DA
:1025C0008F931F924F920E94C81A10920D0310927F
:1025D0000E0310920F031092100380910801909146
:1025E0000901909309038093080341E0EA81FB818C
:1025F00064818DE493E00E94B90D80910C018F5F9E
:10260000809311038DC03FEF231689F082EE93E093
:102610009F938F931F9284E08F930E94C81A692D15
:10262000882D0E946C0E0F900F900F900F90832DAD
:102630008073C82ED12CE4E0D594C794EA95E1F7D5
:102640004C2D692D80918F020E94C30F1F929F9283
:10265000DF92CF921F925F921F922F921F928F92C2
:1026600046EB53E05F934F931F9294E09F938983CF
:102670000E94C81A0FB6F894DEBF0FBECDBF898185
:1026800054C080EA93E09F938F931F9214E01F93AE
:102690000E94C81A0F900F900F900F9080910D0319
:1026A00090910E03A0910F03B0911003892B8A2BF8
:1026B0008B2BE1F010920D0310920E0310920F037A
:1026C0001092100310921403E0918902F0918A0293
:1026D000309709F0099510921203809108019091AA
:1026E000090190930903809308031EC08AE893E0D0
:1026F0009F938F931F921F930E94C81A11C08EE55B
:1027000093E09F938F931F9284E08F930E94C81A47
:10271000492DAA81BB8114966C91882D0E94B80E18
:102720000F900F900F900F9080E0E0918D02F0914C
:102730008E02309709F497C0442D50E08301282F72
:102740008DC0B4E04B1244C0EA81FB81848190E0EB
:102750000A9673E0880F991F7A95E1F780900A0135
:1027600090900B01F4E58F0E911C880E991EAA81A2
:10277000BB8111962C931197E0911703F0911803E8
:1027800074010FEF10E02281452DBD0180E00E9411
:102790001F109F928F9289E393E09F938F931F92D4
:1027A0004F920E94C81AC4010E942E16E0918D0219
:1027B000F0918E020F900F900F900F900F900F904E
:1027C000309709F450C0830120E044E050E046C057
:1027D000B3E04B1248C0EA81FB81848190E00A9605
:1027E00063E0880F991F6A95E1F780900A01909045
:1027F0000B01FCEA8F0E911C880E991EAA81BB81E9
:1028000011962C931197E0911703F091180374011E
:102810000FEF10E02281452DBD0180E00E941F10C6
:102820009F928F9286E193E09F938F931F9284E013
:102830008F930E94C81AC4010E942E16E0918D0247
:10284000F0918E020F900F900F900F900F900F90BD
:10285000309749F0830120E043E050E0652D8A8104
:102860009B8104960995109215030F900F900F907D
:10287000DF91CF911F910F91FF90EF90DF90CF905C
:10288000BF90AF909F908F907F906F905F904F9090
:102890003F902F900895823001F170F48823B1F0B9
:1028A000813009F05FC040930A0150930B015F93A0
:1028B0004F9383EF92E048C0843009F43FC048F161
:1028C000853009F04FC040938F02089540930C016A
:1028D0001F924F9383E093E037C0509309014093D8
:1028E000080120910601309107012417350720F4D3
:1028F000309309012093080180910801909109010A
:1029000080930803909309039F938F9381EE92E045
:102910001BC0CA0150930701409306012091080390
:10292000309109034217530720F450930903409351
:1029300008039F938F938FEC92E006C040930501AC
:102940001F924F938BEB92E09F938F931F9283E0A4
:102950008F930E94C81A0F900F900F900F900F90B6
:102960000F9008958FE992E09F938F931F9282E0DA
:102970008F930E94C81A0F900F900F900F90089598
:1029800090938E0280938D02089590938C02809391
:102990008B02089590938A02809389020895809112
:1029A0000801909109019093090380930803089509
:1029B000CF92DF92FF920F931F93CF93DF931F92DB
:1029C000CDB7DEB76C01FC01948180911801981796
:1029D00068F18CEF96E09F938F931F9216E01F9300
:1029E0000E94C81AF60164857585448181819281AF
:1029F0000E94222B1F9280E18F9381EE96E09F939D
:102A00008F931F921F930E94C81AF6018481805FE2
:102A10008483848595854096958784870FB6F8943E
:102A2000DEBF0FBECDBF80E2F82E1DC08CEC96E05D
:102A30009F938F931F9286E08F930E94C81AF6018E
:102A40006481818192810E94132BF60184818E5FC3
:102A50008483848595850296958784870F900F904F
:102A60000F900F90F12C88EB96E09F938F931F921D
:102A700086E08F930E94C81AF60104851585F80137
:102A8000F082F60184810F900F900F900F908823B1
:102A900011F0F80181838AEA96E09F938F931F9249
:102AA00086E08F930E94C81AF801608180E00E943E
:102AB000001CF80161810E94001CF8018283F6016C
:102AC00084818D5F848385810F900F900F900F908C
:102AD000823021F0843011F061E001C062E08CE8C6
:102AE00096E09F938F931F9286E08F9369830E9455
:102AF000C81A6981C6010F900F900F900F900F9028
:102B0000DF91CF911F910F91FF90DF90CF900C94A8
:102B10000F17EF92FF920F931F93CF93DF931F92A4
:102B2000CDB7DEB7082F6983811105C0109210055B
:102B30006093110102C08230B0F469818091100568
:102B40000E94001C80931005013009F076C0898135
:102B50008093100190E003969093120580931105E5
:102B600080930F016AC0823031F590911005898100
:102B7000981307C08091110590911205843091053A
:102B800090F480E896E09F938F931F9285E08F9357
:102B90000E94C81A10921205109211050F900F9002
:102BA0000F900F904AC083500E9472278DE091E0F1
:102BB0000E94AF2A42C08091110185FF06C06DEFCF
:102BC000600FCE0101960E94822710E08981E0917A
:102BD0000D01F0910E01E00FF11F339780830E94E9
:102BE000B82AE0901105F0901205C7010197081767
:102BF000190719F50E940A236093140170931501B7
:102C000080931601909317019701442737FD409553
:102C1000542F60910C0570910D0580910E059091D7
:102C20000F050E94BE2F30931301209312010E94C2
:102C3000B42A10921205109211050F90DF91CF91D6
:102C40001F910F91FF90EF90089580911105909141
:102C5000120508950C9417100C940B100C94EB179C
:102C6000CF93C42F8130910519F00497A9F03DC08E
:102C7000409318011F924F9380E696E09F938F93A5
:102C80001F9283E08F930E94C81A0F900F900F90AD
:102C90000F900F900F9029C0493090F01F9288E05C
:102CA0008F9329E136E03F932F931F9282E08F9319
:102CB0000E94C81A0F900F900F900F900F900F90D6
:102CC0001F92CF932FEF35E03F932F931F9283E016
:102CD0008F930E94C81A0F900F900F900F900F9033
:102CE0000F908C2FCF910C947F27CF910895409116
:102CF0000C0550910D0560910E0570910F05480F60
:102D0000591F611D711D40930C0550930D05609373
:102D10000E0570930F05089510920C0510920D0585
:102D200010920E0510920F050895CF92DF92EF9248
:102D3000FF9266E775E08091B1059091B2050E941F
:102D4000BC1C6B017C01CB010E944123C6018E0D8E
:102D50009F1D65E976E1FF90EF90DF90CF900C9496
:102D600006260E9457260C94D225CF93C82F809117
:102D70001901823089F5CC2389F0C130E9F466E786
:102D800075E083E195E00E94C51D84E395E00E9413
:102D9000061E85E595E00E94591E0EC066E775E0A7
:102DA00083E195E00E940A1D84E395E00E943F1DA7
:102DB00085E595E00E948B1DC093190188E795E099
:102DC0000E94771983EB95E00E94381983E195E022
:102DD0009093B2058093B10580911901CF91089528
:102DE000CF93DF93BC0188E795E00E945219EC0174
:102DF00088E795E00E944E199093770580937605B9
:102E0000DC01ED91FC910190F081E02D0995CE015E
:102E1000DF91CF9108950E94D7250C949516EF92DB
:102E2000FF921F93CF93DF931F92CDB7DEB77C0144
:102E300082EE97E09F938F931F9216E01F93698312
:102E40000E94C81A0F900F900F900F906981613007
:102E500079F0623029F589EC97E09F938F931F9268
:102E60001F930E94C81A41E0B70186E895E00CC0A4
:102E700083EB97E09F938F931F921F930E94C81A32
:102E800041E0B70189E995E00F900F900F900F9006
:102E90000F90DF91CF911F91FF90EF900C94F2274C
:102EA00081EA97E09F938F931F9281E08F930E9416
:102EB000C81A0F900F900F900F900F90DF91CF9145
:102EC0001F91FF90EF900895CF92DF92EF92FF92C3
:102ED0000F931F93CF93DF936A017B01823091059B
:102EE000D9F04CF4009789F08130910509F059C070
:102EF00081E090E04CC083309105D9F08430910599
:102F000009F04FC084E090E042C0409383051F92D7
:102F10004F9385E897E008C04093BC05D092BD056B
:102F2000DF924F938CE597E09F938F931F9283E0FE
:102F300040C0411551056105710519F08AE497E01B
:102F400002C087E397E09F938F931F9283E08F9354
:102F50000E94C81A0F900F900F900F9008E715E08D
:102F6000C0E0D0E08091800590E0C817D90754F503
:102F7000F801819191918F0161E0C114D104E104C4
:102F8000F10409F460E00E9466292196EBCFDF91FD
:102F9000CF911F910F91FF90EF90DF90CF900C9405
:102FA00030169F938F9388E197E09F938F931F92A2
:102FB00082E08F930E94C81A0F900F900F900F908D
:102FC0000F900F90DF91CF911F910F91FF90EF9095
:102FD000DF90CF9008959093BB058093BA05089534
:102FE00021E2829FC00111248D5E9A4F089586E7E9
:102FF00095E00C94ED2ECF93DF93811109C0E09101
:10300000CA0582E1E89FE0011124C453DA4F08C0E9
:10301000E091C805F2E1EF9FE0011124CE5FD94FA6
:10302000862F90E08A30910500F58C5C9F4FFC0163
:103030000C943F30288319C0298317C02A8315C0F8
:103040002B8313C02C8311C02D830FC02E833F838D
:103050000CC02887398709C02A873B874C875D8742
:1030600004C02E873F87488B598BDF91CF910895FD
:1030700081110BC08091CA0590E0019663E070E079
:103080000E94AA2F8093CA050895813051F480913F
:10309000C80590E0019663E070E00E94AA2F80933B
:1030A000C80508958130C1F42091C9058091C805F3
:1030B000281761F130E0C901019663E070E00E94D9
:1030C000AA2F8093C90542E1429FC001439F900D02
:1030D00011248E5F994F0895811118C02091CB055E
:1030E0008091CA05281791F030E0C901019663E08C
:1030F00070E00E94AA2F8093CB0542E1429FC0015D
:10310000439F900D112484539A4F089580E090E0DE
:1031100008957F928F929F92AF92BF92CF92DF924B
:10312000EF92FF920F931F93CF93DF9300D01F92E4
:10313000CDB7DEB7B82E811102C082E501C084E5AB
:10314000E82EF12C81E4A82E92E5992E23E4822E1C
:1031500034E4732ECE0101966C010AEF17E08B2D3B
:103160000E945218FC01009709F451C0908194FB11
:10317000882780F99F70923059F020F4913059F4EB
:10318000798209C0933031F0943029F4898203C0E8
:10319000A98201C09982882311F082E501C080E0F4
:1031A0008A831B8285858F9384858F9383858F93F4
:1031B00082858F9381898F9380898F9387858F9361
:1031C00086858F9387818F9386818F9381858F9357
:1031D00080858F9385811F928F9381811F928F931A
:1031E00082811F928F9384811F928F9383811F927C
:1031F0008F93DF92CF92FF92EF921F930F930E94D3
:103200008C1B0FB6F894DEBF0FBECDBFA8CF0F90BA
:103210000F900F90DF91CF911F910F91FF90EF9042
:10322000DF90CF90BF90AF909F908F907F90089548
:10323000FC0161708081880F682B608381818F5FC2
:10324000893008F088E081838181883079F480E0DA
:1032500090E0DF01A80FB91F12962C91222311F0E4
:10326000621729F001968530910599F78FEF08953F
:10327000FC0111821082089520E030E0FC01E20F91
:10328000F31F4281411103C06283822F08952F5F93
:103290003F4F2530310591F78FEF0895FC01808174
:1032A00091810895FC018085843081F481E298E069
:1032B0009F938F931F9281E08F930E94C81A0F9063
:1032C0000F900F900F9080E090E00895DF01A80F1D
:1032D000B11DA80FB11D6D937C938F5F8087E80FA0
:1032E000F11DE80FF11D3297808191810895FC0155
:1032F0001086118608950C9490268091380690913E
:1033000039060E94A326F9CF85E998E09F938F9311
:103310001F9281E08F930E94C81A81E798E09F93E3
:103320008F931F92C5E0CF930E94C81A8BE498E058
:103330009F938F931F92CF930E94C81A84E398E0C3
:103340009F938F931F92CF930E94C81A0E94C9190E
:103350000E947D1981110BC087EA98E09F938F939B
:103360001F9281E08F930E94C81A0E9484190895C9
:103370000E9442278FE790E09093C4068093C30693
:103380001092C6061092C5061092C8061092C70683
:1033900008952091C7063091C8068091C506909186
:1033A000C6062817390799F0F901ED5BF94F8081BE
:1033B0002F5F3F4F4091C3065091C406242335230D
:1033C0003093C8062093C7060E945F27E2CF089576
:1033D0008093420608958F929F92BF92CF92DF9280
:1033E000EF92FF920F931F93CF93DF931F92CDB76E
:1033F000DEB74C01B12C8C010C571F4F7C0182E8C9
:10340000E80EF11C6401E0E8CE0ED11CB616E9F01E
:10341000F80120813181F7018081918128173907D6
:10342000A1F0F401E20FF31F80812F5F3F4FF601FF
:103430004081518124233523F8013183208369831E
:103440000E945F27B3946981E1CF81E00F90DF9103
:10345000CF911F910F91FF90EF90DF90CF90BF9091
:103460009F908F90089560E183E496E00C94EB19AF
:10347000CF93C82F4091C5065091C6069A012F5F81
:103480003F4F6091C3067091C40626233723609195
:10349000C7067091C8062617370751F0FA01ED5B91
:1034A000F94FC0833093C6062093C506CF91089587
:1034B00060E183E496E00E94EB19DCCFCF93DF93C9
:1034C000EC018991882319F00E94381AFACFDF9114
:1034D000CF910895CF93DF9300D01F92CDB7DEB781
:1034E000BE016F5F7F4F0E94CC1B0E945E1A0F903F
:1034F0000F900F90DF91CF910895CF93DF93CDB7C9
:10350000DEB727970FB6F894DEBF0FBECDBFBE0162
:103510006F5F7F4F0E94EB1B0E945E1A27960FB6CB
:10352000F894DEBF0FBECDBFDF91CF910895CF934A
:10353000DF9300D000D000D0CDB7DEB7BE016F5F03
:103540007F4F0E94E71B0E945E1A26960FB6F894E2
:10355000DEBF0FBECDBFDF91CF910895CF93DF9334
:10356000CDB7DEB72B970FB6F894DEBF0FBECDBF39
:10357000AE014F5F5F4F0E94E31B0E945E1A2B96C5
:103580000FB6F894DEBF0FBECDBFDF91CF91089587
:103590000F931F93CF93DF93CDB7DEB70F811885BD
:1035A00080911A0190911B01801791079CF18091E5
:1035B000420681110E94381A0E940A239F938F931A
:1035C0007F936F93F801EE0FFF1FE15BFE4F818148
:1035D0008F9380818F9380ED98E09F938F930E94CB
:1035E0008C1BBE01655F7F4F89859A850E940F1BEA
:1035F0008AE00E94381A0FB6F894DEBF0FBECDBF26
:103600000130110529F0065011090230110510F49E
:103610000E94C919DF91CF911F910F910895BF9218
:10362000CF92DF92EF92FF920F931F93CF93DF938E
:103630008C01EB01FC0184919CEBE92E98E0F92EC2
:10364000BB24B394882309F45DC0853209F053C0CC
:103650000F5F1F4FF80184918436E1F060F48835E4
:1036600071F18336E9F56E01E2E0CE0ED11C88815E
:103670000E94381A22C08C36B1F0833741F1893666
:1036800079F56E0182E0C80ED11C888199810E9473
:103690007D1A13C06E01F2E0CF0ED11C8881998192
:1036A0000E94971A0AC06E01E4E0CE0ED11C688118
:1036B00079818A819B810E94AE1AE6011EC06E014B
:1036C000F2E0CF0ED11C88810E946A1AF6CF6E01FB
:1036D00082E0C80ED11C888199810E945E1AEDCFCC
:1036E000FF92EF921F92BF920E94C81A0F900F9004
:1036F0000F900F9002C00E94381A0F5F1F4FF80101
:103700008491A0CFDF91CF911F910F91FF90EF9007
:10371000DF90CF90BF900895CF93DF93CDB7DEB702
:10372000FE01359681919191BF010E940F1BDF919F
:10373000CF91089590931B0180931A01FC01EE0F25
:10374000FF1FE15BFE4F0190F081E02D20811F9271
:103750002F939F938F938AED98E09F938F931F925F
:1037600083E08F930E94C81A8DB79EB708960FB654
:10377000F8949EBF0FBE8DBF08958FE790E09093A1
:10378000C4068093C3061092C6061092C506109216
:10379000C8061092C7060895CF93DF93FB01C82F88
:1037A000CF70D0E0C15ADE4F988182958F70A82FDC
:1037B000B0E0A15ABE4F8C91808391831282CB01DD
:1037C000DF91CF9108952AE030E00C9466304AE012
:1037D00050E00C948B30CF93DF93D62FC72F97FFF9
:1037E00008C0E62FF72F2DE22193BF019195819517
:1037F00091090E94E71B8D2F9C2FDF91CF91089597
:10380000682788E09CE8262F30E03595279560FFF3
:1038100003C0622F692701C0622F8150A1F7862F54
:103820000895682780E1689F90011124622770E065
:10383000362F2227492F50E0242B352BCB01E4E0F3
:1038400095958795EA95E1F728273927CB01F3E08D
:10385000880F991FFA95E1F782279327089561153C
:1038600071058105910531F00000615071098109F0
:103870009109F5CF089520911C0130911D01282751
:1038800039272115310529F030931D0120931C01A2
:1038900008958FEF9FEF90931D0180931C01089571
:1038A000EF92FF920F931F93CF93DF930E945726BF
:1038B0000E94482600E110E0C0E0D0E00E945126BE
:1038C0007E01EE0CFF1C0E941A26EC01C170DD2760
:1038D000CE29DF29015011090115110579F7CE0113
:1038E0000E943B1CCE01DF91CF911F910F91FF9061
:1038F000EF900895BC0120911C0130911D01A90198
:10390000542F44275295550F507E422753279A0132
:10391000232F3327269524273527C9019695982FDD
:103920008827979587958227932790931D018093E9
:103930001C010E94962F089520911C0130911D01B9
:10394000C901982F88279295990F907E82279327F7
:103950009C01232F3327269528273927C9019695BF
:10396000982F8827979587958227932790931D01F5
:1039700080931C0189270895CF93DF93EC01CB013D
:103980002881FE01E20FF11DE20FF11D0180F2819D
:10399000E02D099528812F5F2883FE01E20FF11D9C
:1039A000E20FF11D21813281232B19F418821C8E24
:1039B0001B8EDF91CF910895EF92FF920F931F938B
:1039C000CF93DF937C01EB018A0181E0209709F41A
:1039D00080E00E94AA19D7015F96ED91FC91909723
:1039E000309711F0C801099518821C8E1B8EED8D41
:1039F000FE8D309711F0C8010995CE01DF91CF916E
:103A00001F910F91FF90EF900895FC011082148E8A
:103A1000138E0895CF93DF93EC01CB010E945521C3
:103A200086EC9EE19A83898385ED9EE19C838B835E
:103A30008FED9EE19E838D8389E39FE198878F833D
:103A40008DEF9EE19A87898783E49FE19C878B872E
:103A50008BE19FE19E878D878DE49FE1988B8F8717
:103A600082EE92E29A8B898B1C8A1B8A81E091E21A
:103A70009E8F8D8FCE01DF91CF910C94051DFC019F
:103A800086EC9EE19283818385ED9EE1948383831E
:103A90008FED9EE19683858389E39FE190878783FD
:103AA0008DEF9EE19287818783E49FE194878387EE
:103AB0008BE19FE1968785878DE49FE1908B8787D7
:103AC00082E192E2928B818B148A138A84E091E2E4
:103AD000968F858FCF010C94051DDC018D919C91F3
:103AE000DC01ED91FC910280F381E02D099560E508
:103AF00070E080E090E00895DC018D919C91DC0104
:103B0000ED91FC910680F781E02D099566E270E069
:103B100080E090E00895FC0186EC9EE19283818331
:103B200085ED9EE19483838384E890E29683858388
:103B300085EA90E29087878384EB90E29287818781
:103B40008CE79DE1948783878DE69DE19687858745
:103B50008DE49FE1908B878785EC90E2928B818B3F
:103B600085EE90E2948B838B8FEE90E2968B858B23
:103B70008AE991E2908F878B128E118E80E191E21B
:103B8000968F858FCF010C94051DCF93DF93EC01A9
:103B9000CB010E94552185E790E29A8389838FE5C6
:103BA0009FE19C838B8381E79FE19E838D838FE8D8
:103BB0009FE198878F839A8789878EEA9FE19C8708
:103BC0008B878DEC9FE19E878D878CEE9FE1988B94
:103BD0008F879A8B898B8BE090E29C8B8B8B8AE210
:103BE00090E29E8B8D8B83E690E2988F8F8B82EE96
:103BF00092E29A8F898F1C8E1B8E81E091E29E8FBC
:103C00008D8FCE01DF91CF910C94051DFC0185E7CE
:103C100090E2928381838FE59FE19483838381E7A0
:103C20009FE1968385838FE89FE1908787839287C2
:103C300081878EEA9FE1948783878DEC9FE1968749
:103C400085878CEE9FE1908B8787928B818B8BE0B1
:103C500090E2948B838B8AE290E2968B858B83E64D
:103C600090E2908F878B82E192E2928F818F148E07
:103C7000138E84E091E2968F858FCF010C94051D01
:103C8000DC018D919C91DC01ED91FC910680F78126
:103C9000E02D099566E770E080E090E00895FC0172
:103CA000808191810E948E2862E370E080E090E044
:103CB0000895FC0185E790E2928381838FE49EE181
:103CC0009483838384E890E29683858385EA90E2F7
:103CD0009087878384EB90E29287818780E49EE1DE
:103CE0009487838783E690E29687858785EC90E2C8
:103CF000908B878785EE90E2928B818B8FEE90E29E
:103D0000948B838B8AE991E2968B858B108E178A30
:103D100080E191E2968F858FCF010C94051D0F9362
:103D20001F93CF93DF93EC018C8583FF0AC08D85B1
:103D30008150FE01E65BFF4F118280838C85877F77
:103D40000BC081FF0BC0FE01E65BFF4F8BEA818356
:103D500087E080838C858D7F8C8710C08E01045B0B
:103D60001F4FC8010E94492F882351F0C8010E94AB
:103D7000552FC65BDF4F898387E0888381E001C0D0
:103D800080E0DF91CF911F910F910895DC018D911B
:103D90009C91DC01ED91FC910280F381E02D09956D
:103DA00060E570E080E090E00895FC018081918101
:103DB0000E948E2866E270E080E090E00895CF9344
:103DC000DF93EC0188819981DC01ED91FC91028007
:103DD000F381E02D0995888199810E949028AC019A
:103DE00060E070E0888199810E947A2961E770E043
:103DF00080E090E0DF91CF910895CF93DF93EC01C5
:103E000088819981DC01ED91FC910280F381E02DA4
:103E10000995888199810E949028AC0160E070E04A
:103E2000888199810E94722961E770E080E090E0CA
:103E3000DF91CF910895CF93DF93EC018881998131
:103E4000DC01ED91FC910280F381E02D09958881E0
:103E500099810E949028AC0161E070E0888199818D
:103E60000E94722960E570E080E090E0DF91CF91E0
:103E70000895FC01808191810E948E2866E270E0A5
:103E800080E090E00895FC01808191810E948E285D
:103E900066E270E080E090E00895CF93DF93EC015C
:103EA000888199810E948E28888199810E94622947
:103EB00066E770E080E090E0DF91CF910895FC012B
:103EC000808191810E948E281092CC061092CB06A0
:103ED0001092CE061092CD066CE370E080E090E088
:103EE00008950F931F93CF93DF93EC0188819981FD
:103EF0000E9490288C01888199810E948E28A801B7
:103F000060E070E0888199810E947A296FE170E019
:103F100080E090E0DF91CF911F910F9108950F9372
:103F20001F93CF93DF93EC01888199810E949028A1
:103F30008C01888199810E948E28EBECF6E020812B
:103F40003181200F311F318320836FE170E080E0E9
:103F500090E0DF91CF911F910F9108950F931F93E0
:103F6000CF93DF93EC01888199810E9490288C0186
:103F7000888199810E948E28EBECF6E020813181C6
:103F8000200F311F318320836AE370E080E090E0EE
:103F9000DF91CF911F910F9108950F931F93CF93AE
:103FA000DF93EC01888199810E9490288C0188819F
:103FB00099810E948E28EBECF6E020813181200F60
:103FC000311F318320836FE170E080E090E0DF916A
:103FD000CF911F910F9108950F931F93CF93DF936C
:103FE000EC01888199810E9490288C0188819981B7
:103FF0000E948E28EDECF6E020813181200F311FE8
:10400000318320836FE170E080E090E0DF91CF9119
:104010001F910F9108950F931F93CF93DF93EC019E
:10402000888199810E9490288C01888199810E94C1
:104030008E28EDECF6E020813181200F311F318395
:10404000208360E370E080E090E0DF91CF911F91EA
:104050000F9108950F931F93CF93DF93EC01888105
:1040600099810E9490280DEC16E0F80120813181A1
:10407000280F391FEBECF6E04081518156954795AA
:1040800056954795518340833695279536952795C4
:10409000F8013183208360E070E0888199810E947B
:1040A0007229F8014081518161E070E08881998135
:1040B0000E94722960E570E080E090E0DF91CF918E
:1040C0001F910F910895CF93DF93EC01888199811F
:1040D0000E948E28888199810E94622966E770E09B
:1040E00080E090E0DF91CF910895DC018D919C916B
:1040F000DC01ED91FC910680F781E02D099564E4E7
:1041000070E080E090E00895CF93DF93EC01FC0134
:10411000E55BFF4F60816095661F6627661F88819B
:1041200099810E945529888199810E949028AC012B
:1041300060E070E0888199810E947A2961E770E0EF
:1041400080E090E0DF91CF910895DC018D919C910A
:10415000DC01ED91FC910680F781E02D099566E286
:1041600070E080E090E00895FC01E55BFF4F608126
:10417000661F6627661FFC01808191810E94552978
:1041800061E770E080E090E00895CF93DF93EC0169
:10419000FC01E55BFF4F6081661F6627661F888113
:1041A00099810E945529888199810E949028AC01AB
:1041B00061E070E0888199810E947A2961E770E06E
:1041C00080E090E0DF91CF910895FC0180819181A2
:1041D0000E94622966E270E080E090E00895FC01B0
:1041E000E55BFF4F60816095661F6627661FFC01D7
:1041F000808191810E94552961E770E080E090E024
:104200000895CD960C943819FC01E85BFF4F11829C
:1042100010820E948C161092CA061092C906089548
:10422000CF93DF93EC018C858D7F877F8C879D8575
:10423000992311F088608C878C8580FF0DC041E048
:10424000BE016A5C7F4FCE01845B9F4F0E94902F1E
:104250008C858E7F8C8714C08E859F850E942B282D
:10426000882371F08C85846082608C878E859F8521
:104270000E945F28BC01CE01845B9F4F0E947B2F70
:10428000CE010E948F1E81110DC082E399E09F93A1
:104290008F931F9281E08F930E94C81A0F900F9006
:1042A0000F900F90DF91CF9108956BEACD960E9409
:1042B0003C198093CF0687FF0DC08EEF98E09F9347
:1042C0008F931F9281E08F930E94C81A0F900F90D6
:1042D0000F900F900895CF93DF93EC01FC01E65B04
:1042E000FF4F9081992331F08181880F8183915014
:1042F00090831AC0CE010E948F1E811115C08C853B
:1043000082FF07C08E859F850E9452288C858B7FF7
:104310008C8780E00E94F017AE01BC018BAD9CAD94
:104320000E94DC1C9CAF8BAF88819981DF91CF917B
:104330000C94E528CF93DF93EC01888199810E944A
:104340006229CE010E946B2188819981DC01ED9167
:10435000FC910284F385E02D099546E750E060E08A
:1043600070E0BC01CB01BA01DF91CF910895FF92BB
:104370000F931F93CF93DF93EC0188819981DC0128
:10438000ED91FC910084F185E02D0995F82E88814E
:1043900099810E9494292091C9063091CA06280F5C
:1043A000391F3093CA062093C9068E01085B1F4F40
:1043B0008F2D8170F8019181990F892B81838081E4
:1043C0008F5F8083883028F1C90123E09695879517
:1043D0002A95E1F70E9477161092CA061092C90634
:1043E000FE01E75BFF4F6081CE01C7960E94B627B2
:1043F000D80111961C9211971C9281110AC00E943B
:10440000F017AE01BC018BAD9CAD0E94DC1C9CAFD3
:104410008BAF88819981DF91CF911F910F91FF9090
:104420000C94E528CF93DF93EC01888199810E9459
:104430009028AC0161E070E0888199810E947A291E
:10444000CE010E94B72188819981DC01ED91FC9118
:104450000284F385E02D09954EE751E060E070E0BD
:10446000BC01CB01BA01DF91CF910895EF92FF9289
:104470000F931F93CF93DF93EC01FC01EC5BFF4F95
:1044800080819181009749F0019791838083892BE6
:1044900009F091C0CE01839668C07E0180E1E80EEC
:1044A000F11CC7010E9428288E010D5D1F4F882333
:1044B00051F08E859F858017910711F40E944E2838
:1044C000FF86EE860AC0C8010E942828882319F0BA
:1044D0001F870E8702C01F861E868C8580FD55C0F3
:1044E000FE01EA5BFF4F60817181888199810E94A2
:1044F0008229882309F441C088819981DC01ED91EA
:10450000FC910084F185E02D09958E01035C1F4F1D
:10451000682FC8010E941819F82E87FD22C08091CB
:10452000CF06F8120CC081E00E94F017AE01BC016A
:104530008BAD9CAD0E94DC1C9CAF8BAF0FC0888103
:1045400099810E949228FE01EF0DF11DF7FCFA956A
:104550004AE250E0682F87AD0E942C16C8010E94E5
:1045600038198E859F85009731F1DF91CF911F918A
:104570000F91FF90EF900C944E288E859F850097A9
:10458000D1F00E942B28882361F082E00E94F0176E
:10459000AE01BC018BAD9CAD0E94DC1C9CAF8BAF0F
:1045A0000AC08E859F85DF91CF911F910F91FF905B
:1045B000EF900C943A28DF91CF911F910F91FF90CB
:1045C000EF900895CF93DF93EC01888199810E9449
:1045D0009028AC0161E070E0888199810E947A297D
:1045E000CE010E943622888199810E94E528888127
:1045F0009981DC01ED91FC910284F385E02D099510
:104600004EE751E060E070E0BC01CB01BA01DF9100
:10461000CF910895AF92BF92CF92DF92EF92FF9227
:104620000F931F93E091E60688E0E89FF0011124C4
:10463000E951F94F20813181428153816481758133
:10464000868197812C503E4F4F4F5F4F6F4F7F4F6A
:104650008F4F9F4FE8EEAE2EF3E0BF2EC12CD12C32
:10466000E12CF12C00E010E00E94E22FB901CA0118
:104670001F910F91FF90EF90DF90CF90BF90AF9080
:1046800008952F923F925F926F927F929F92AF9286
:10469000BF92CF92DF92EF92FF920F931F93CF932F
:1046A000DF93A091E60628E0A29FF0011124E951D2
:1046B000F94F508061807280D380E480F58006815C
:1046C0001781992493949A0EE92DE1709E2E2E2E37
:1046D000312C9C0140E050E060E070E080E090E030
:1046E000A52CB62CC72C0E944530A3E0220C331C0D
:1046F000AA95E1F7F101E951F94F20833183428313
:10470000538364837583868397839092E606DF9153
:10471000CF911F910F91FF90EF90DF90CF90BF90BE
:10472000AF909F907F906F905F903F902F900895F3
:10473000AF92BF92CF92DF92EF92FF920F931F93AF
:10474000CF93DF9300D000D0CDB7DEB70E940A230D
:10475000C090D006D090D106E090D206F090D3065B
:104760006C157D058E059F0508F44AC0CC24CA94BB
:10477000DC2C7601C092D006D092D106E092D2060F
:10478000F092D30614EDA12E16E0B12ED5011496A9
:10479000ED91FC911597309759F10D911D912D9147
:1047A0003C91601771078207930768F069837A83E9
:1047B0008B839C830995F5011582148269817A8126
:1047C0008B819C8115C0C090D006D090D106E0901E
:1047D000D206F090D3060C151D052E053F0540F4BA
:1047E0000093D0061093D1062093D2063093D306BF
:1047F000F6E0AF0EB11C26EEA21626E0B20631F6A8
:104800000F900F900F900F90DF91CF911F910F910C
:10481000FF90EF90DF90CF90BF90AF9008950C94F1
:1048200064170C944B14009719F00197F9F0089550
:104830004830510561057105B0F07F936F935F9328
:104840004F9389E899E09F938F931F9282E08F9313
:104850000E94C81A8DB79EB708960FB6F8949EBFEF
:104860000FBE8DBF0895CA010C949A1B842F0C941F
:10487000E819CF930E9473260E9490260E947B190C
:104880000E94B8198CEF99E09F938F931F9284E058
:104890008F930E94C81A0E94501C86EE99E09F9345
:1048A0008F931F92C3E0CF930E94C81A0E94B11643
:1048B00081ED99E09F938F931F92CF930E94C81A26
:1048C0000E94A62A8CEB99E09F938F931F92CF931F
:1048D0000E94C81A0E94EB0C8DE999E09F938F9378
:1048E0001F92CF930E94C81A61E174E281E00E9496
:1048F0006D256FE074E280E00E946D258DB79EB754
:1049000044960FB6F8949EBF0FBE8DBF63E174E26C
:1049100082E0CF910C946D250E94202E0E94F6100B
:104920000E94331A0C94982387E799E09F938F9302
:104930001F9283E08F930E94C81A0F900F900F90E0
:104940000F900C940B170C94C0140C94C5140C9479
:10495000CA14BF92CF92DF92EF92FF920F931F93F0
:10496000CF93DF93CDB7DEB7A9970FB6F894DEBF2C
:104970000FBECDBFB82E7B016A01890180E00E9485
:10498000B516811150C09601A7016B2DCE0101967D
:104990000E94950C8B81F80182838AE0FE01349697
:1049A000D801139601900D928A95E1F78E85F80152
:1049B00085878F8586878889878789899A89918B5A
:1049C000808B8B899C89938B828B8D89848B8E893C
:1049D000858B8F89988D978B868B898D9A8D918FFA
:1049E000808F8B8D9C8D938F828F8D8D848F8E8DFC
:1049F0009F8DA8A1B9A1858F968FA78FB0A34AA13B
:104A00005BA16CA17DA141A352A363A374A38EA15A
:104A10009FA196A385A388A599A590A787A3C80160
:104A20000E94F0160FC08BE499E09F938F931F9222
:104A300081E08F930E94C81A0F900F900F900F90F3
:104A400080E090E0A9960FB6F894DEBF0FBECDBF10
:104A5000DF91CF911F910F91FF90EF90DF90CF905A
:104A6000BF9008950F93042F21E0462FBC0180E0F2
:104A70000E94F00E0F9108950F931F9300E010E035
:104A80000E9445251F910F9108950F931F93DB01FD
:104A9000BA01A9019801FC01EE0FFF1FE950F94F7F
:104AA0000190F081E02D309721F0CD011F910F9101
:104AB00009949F938F9382E19AE09F938F931F9223
:104AC00082E08F930E94C81A0F900F900F900F9062
:104AD0000F900F901F910F910895E82FF0E0EE0FC7
:104AE000FF1FE950F94F7183608308951F920F9261
:104AF0000FB60F9211242F933F934F935F936F93B1
:104B00007F938F939F93AF93BF93EF93FF93809186
:104B10006F008D7F80936F00E0910107F091020795
:104B2000309709F00995FF91EF91BF91AF919F9157
:104B30008F917F916F915F914F913F912F910F9046
:104B40000FBE0F901F9018951F920F920FB60F92E5
:104B500011242F933F934F935F936F937F938F9382
:104B60009F93AF93BF93EF93FF9380916F008B7FE1
:104B700080936F00E091FF06F0910007309709F0F5
:104B80000995FF91EF91BF91AF919F918F917F9187
:104B90006F915F914F913F912F910F900FBE0F90AA
:104BA0001F90189510928500109284000895CF935D
:104BB00080E791E09F938F9381E69AE09F938F9394
:104BC0001F92C7E0CF930E94C81AE1E8F0E080810D
:104BD000826080838DE49AE09F938F931F92CF939E
:104BE0000E94C81A789484E39AE09F938F931F924F
:104BF00087E08F930E94C81A8DB79EB70E960FB6A6
:104C0000F8949EBF0FBE8DBFCF9108957093020799
:104C100060930107E8E8F0E020813181880F991F57
:104C2000820F931F91838083EFE6F0E080818260A2
:104C30008083089580917A0086FDFCCF8091780072
:104C4000909179000895FC0120813181263231054F
:104C500019F48281863080F08AE69AE09F938F93E0
:104C60001F9281E08F930E94C81A0E9484190F90AE
:104C70000F900F900F908FEF90917C00907F90930A
:104C80007C0090917C008770892B80937C00089534
:104C9000ECE7F0E08081807F808380818860808382
:104CA0000895EAE7F0E08081806480830895EAE770
:104CB000F0E0108280E480937C00808180688083B3
:104CC00080818460808380818D7F808380818E7FDE
:104CD00080830E9451260E941A2660E47FE180E0D2
:104CE00090E00C942F1C0895A89580E89AE09F937B
:104CF0008F931F9283E08F930E94C81A0E94C91954
:104D000028E088E190E00FB6F894A89580936000C1
:104D10000FBE209360000F900F900F900F90FFCF69
:104D20000895FC014281808191810C94FD26FC0153
:104D30006281808191810C941027FC0162818081C5
:104D400091810C941C27FC016281808191810C94DB
:104D50002927CF92DF92EF92FF920F931F93CF9369
:104D6000DF938C017B01812F8095881F8827881F06
:104D70000E94AA19C80160E170E00E94AA2F6C018C
:104D800081E098E0C916D1040CF080E00E94AA19D5
:104D9000E80117FD2F9684E0D595C7958A95E1F730
:104DA00093E0CC0FDD1F9A95E1F7CC0DDD1D289720
:104DB000DF93CF931F930F938FE89AE09F938F9386
:104DC0001F9287E08F930E94C81AB701CE010E94FC
:104DD00035278DB79EB708960FB6F8949EBF0FBEC5
:104DE0008DBFC701DF91CF911F910F91FF90EF9081
:104DF000DF90CF9008950C94A130FC01518121E007
:104E000030E0042E01C0220F0A94EAF720952523F2
:104E1000042E01C0660F0A94EAF7262B2183089519
:104E2000FC01428121E030E0062E01C0220F0A94ED
:104E3000EAF7422B42830895FC01428121E030E0F1
:104E4000062E01C0220F0A94EAF72095242322831C
:104E50000895FC01428121E030E0062E01C0220FBE
:104E60000A94EAF7422742830895FB01BC01660FCA
:104E7000771F680F791F6C55754F43E050E0CF01E5
:104E80000C944E301092C50080E18093C400E0EC99
:104E9000F0E080818260808386E08093C20088E1B8
:104EA0008093C10008958091C000881F8827881FC3
:104EB00008958091C00085FB882780F90895CF93DD
:104EC000C82F0E9459278823E1F3C093C600CF91D1
:104ED00008952091C00027FFFCCF2091C600FC015F
:104EE0002083089590910507891710F48093050792
:104EF000909105079093040780930307089580938A
:104F0000050708951F93CF93DF93EC01162F80912F
:104F10000407882309F10E949C1C90E0609103071C
:104F200070E0611B71090E94AA2F2091040730E0F4
:104F3000821793078CF40E949C1C877021E030E05C
:104F400001C0220F8A95EAF788812827288380915B
:104F50000407815080930407DF91CF911F9108953A
:104F6000FC0111821082138212820895CF93DF9385
:104F7000EC0188810E948915888199810196998325
:104F800088838330910549F40E9425169B838A8388
:104F9000892B79F4198218820CC08430910548F06D
:104FA0002A813B818217930721F4198218821B8280
:104FB0001A828881DF91CF910895FC0111821082BD
:104FC000138212821582148217821682118610862D
:104FD000138612861586148666871786118A108AAC
:104FE000128A0895CF93DF93FC01DB01C089D18938
:104FF000209719F017861A82198214968C911497AB
:1050000090E0938382831C968D919C911D9795834C
:10501000848311968D919C91129797838683118238
:10502000108221E04227428B18968D919C9119970E
:105030009187808716968D919C9117979387828789
:1050400015861486B18BA08B2787DF91CF910895A9
:10505000FC0187850895FC0124853585828593852B
:105060002817390729F481E020853185232B09F0A1
:1050700080E00895FC01848595852285338582171B
:10508000930739F48085918501979187808780E027
:10509000089501969587848781E00895FC0115861F
:1050A00014860895CF93DF93EC01888999890E9433
:1050B0002A16198A188A1F86DF91CF910895FC015C
:1050C000808991890895089508950895089580E04C
:1050D000089580E090E00895FC018CE791E09183D1
:1050E00080836283158616861786118A108A138A32
:1050F000128A148A158A178A168A118E108E138EB8
:10510000128E148E158E168E178E10A211A212A258
:1051100013A214A2089560E00C946C280C945126FC
:105120000C941A26FC0182810895EF92FF920F934E
:105130001F93CF93DF9300D0CDB7DEB77C018901F9
:10514000FC014587842F90E0079633E0959587957D
:105150003A95E1F78B3090F08CEE9AE09F938F9325
:105160001F9282E08F9369837A830E94C81A0F90FE
:105170000F900F900F9040E57A816981DB0180E00C
:1051800090E050E0841795078CF4FC0123E0F5953E
:10519000E7952A95E1F7EE0DFF1D3381330F338339
:1051A0002D912053232B23830196ECCFF701118BF4
:1051B000008B138B028B16860F900F90DF91CF918F
:1051C0001F910F91FF90EF9008950F931F93CF932E
:1051D000DF93FC0144898589811102C0442399F140
:1051E00026893789028D138DC9016AE070E00E941B
:1051F000962F8017910710F0478703C081E084271E
:1052000087872F5F3F4F378B268BC9016AE070E09D
:105210000E94962FC08DD18D892B79F4848D815079
:10522000848F81110AC0CE0164E670E00E94962F3F
:10523000648F01501109138F028F2C173D0781F5E0
:10524000148A158A2DC08289938920893189821711
:10525000930719F52685A22FB0E043E0B595A795F1
:105260004A95E1F7AE0FBF1F13968C9190E0322F55
:10527000377002C0959587953A95E2F780FF03C095
:1052800081E0878701C017862F5F268785852813D1
:1052900001C01686138A128A03C00196938B828BF3
:1052A000DF91CF911F910F910895DC01ED91FC9159
:1052B000662321F00480F581E02D03C00680F7818C
:1052C000E02D0994FC0167850C94552921E030E01C
:1052D00041E0662319F065E271E002C066E771E023
:1052E0000C949528660F771F680F791FFB01568F66
:1052F000458F0895660F771F680F791FFB0152A332
:1053000041A30895FC01258D368D878D90A1281B22
:10531000390B37FF03C031952195310981E06217C0
:10532000730708F080E00895FC01858D968D278D28
:1053300030A1821B930B97FF03C091958195910932
:105340000895882399F0662389F0E82FF0E0ED5462
:10535000F24F8491E62FF0E0ED54F24FE491F0E04B
:10536000E80FF11DED54F44F8491089580E0089505
:10537000BF92CF92DF92EF92FF920F931F93CF9342
:10538000DF9381E08093710702E717E0C1E0D0E08E
:10539000F8011082E12CF12CFE01EE54F44FB49090
:1053A0006801CE0CDF1CD60111976B2D8C910E94E9
:1053B000A129F601908198279083F1E0EF1AF10876
:1053C000C7018C0F9D1F892B59F721960F5F1F4F27
:1053D000C131D105E9F6DF91CF911F910F91FF9077
:1053E000EF90DF90CF90BF9008956623B1F08823AF
:1053F000B1F0E82FF0E0ED54F24F8491E62FF0E0A9
:10540000ED54F24F9491E82FF0E0E150FF4FE91B8B
:10541000F109ED54F44F849108958FEF089580E0E1
:105420000895CF92DF92EF92FF920F931F93CF9345
:10543000DF931F92CDB7DEB78C01FC0191916F0114
:10544000E62EF12C9601201B310B2E153F055CF446
:10545000642F892F49830E94A129F60191916F0140
:1054600098274981EFCF892F0F90DF91CF911F911E
:105470000F91FF90EF90DF90CF9008952F923F9281
:105480004F925F926F927F928F929F92AF92BF9254
:10549000CF92DF92EF92FF920F931F93CF93DF9300
:1054A0006C01E12CF12C462E512C242E312C3C0188
:1054B000640C751C5701A40CB51CA214B3049CF514
:1054C00010920A07C1E6D7E000E010E043018E0C1D
:1054D0009F1CA114B10421F4F601808188830BC0C4
:1054E000F801ED54F44F649188810E94A129F401E0
:1054F000908198279883DE018991E0910807F091C7
:105500000907E00FF11F808380910A079C91892B86
:1055100080930A070F5F1F4F00311105D1F6FFEF8F
:10552000EF1AFF0AC7CFDF91CF911F910F91FF9024
:10553000EF90DF90CF90BF90AF909F908F907F9033
:105540006F905F904F903F902F9008950E94B829E0
:1055500080E297E09093090780930807089590935D
:105560000E0780930D07089581E080930F0708953B
:1055700080910B078F5F80930B070895CF92DF9286
:10558000EF92FF920F931F93CF93DF93611106C0A9
:105590002FEF3FEF3093070720930607C0E0D0E0DE
:1055A000062F10E0E42EF12C6C01C00ED11ECE01AE
:1055B000800F911F8E159F0584F4F601EC0FFD1FDF
:1055C000608180910607909107070E94111C9093BB
:1055D0000707809306072196EACFDF91CF911F91AD
:1055E0000F91FF90EF90DF90CF900895EF92FF9290
:1055F0000F931F93CF93DF938C01EC018FEF9FEFFD
:10560000E62EF12C9E01201B310B2E153F0524F4B4
:1056100069910E94111CF6CFDF91CF911F910F91DC
:10562000FF90EF9008951F93CF93DF93EC01162F17
:105630000E94F62AC10FD11D88839983DF91CF91F3
:105640001F9108953F924F925F926F927F928F9237
:105650009F92AF92BF92CF92DF92EF92FF920F9301
:105660001F93CF93DF935C01EB01DC01FB0180E032
:1056700090E02D912193019680319105D1F7E42E90
:10568000F12C403158F000E110E04E018FEF881A04
:10569000980A3E01EFE06E0E711C36C020E030E04B
:1056A000AE014E0D5F1DFA01E20FF31F10822F5F56
:1056B0003F4FC9018E0D9F1D4097A9F7E4CF8D91F3
:1056C0008193E615F705D9F71F860E151F052CF4F3
:1056D000F501E00FF11F80818F8782E7482E87E078
:1056E000582E6E01632DF20181912F010E94A12994
:1056F000F6019081982791936F01F2E84F16F7E039
:105700005F0681F70F5F1F4FC80140978E159F05F9
:1057100024F43880D401FE01D2CFDF91CF911F91C4
:105720000F91FF90EF90DF90CF90BF90AF909F9040
:105730008F907F906F905F904F903F9008952F9241
:105740003F924F925F926F927F928F929F92AF9211
:10575000BF92CF92DF92EF92FF920F931F93CF935E
:10576000DF93CDB7DEB761970FB6F894DEBF0FBEFB
:10577000CDBF9D878C876B834A875B8729838AE1AE
:105780009BE09F938F931F9286E08F930E94C81A8D
:105790000F900F900F900F902981213110F08FEF13
:1057A00036C280910A07882309F430C210920A0792
:1057B0003981232E312C311124C0209108073091DA
:1057C0000907398B288B205F3F4F398728878888C6
:1057D000998830E2830E911C81E0A889B98950969E
:1057E0008C93509790968C93412C512C77247394E2
:1057F000AA24A39420E130E0221933093F832E83A9
:1058000043C00A851B85E12CF12C3B81A32EB12CD2
:1058100061E0A61AB1086FE0662E712CE214F30461
:1058200064F6D8018D918D01F501E81BF109ED5465
:10583000F44F5490C12CD12C43018E189108C814F8
:10584000D904CCF440910807509109074C0D5D1D17
:10585000652DFA0180814E875F870E94A1294E85C0
:105860005F85DA0111962C91119728272C93BFEFB1
:10587000CB1ADB0AE4CFEFEFEE1AFE0ACFCFB1105E
:1058800032C07FEF471A570A2E813F8142165306D6
:105890000CF081C0F401E70DF11D10827394E091CA
:1058A0000807F0910907E40DF51DB0807F0101E0C4
:1058B00010E02A2D30E0C888D988C20ED31E021706
:1058C0001307ECF6F601E01BF10BD7016E917D0199
:1058D00087852E873F870E94A129B8260F5F1F4F1B
:1058E0003F852E85ECCFA71420F508851985740116
:1058F000C72CD12CC701881999098C159D05B4F4C2
:105900006B2DF70180810E94A129682E6B2D81E00B
:105910000E94F529682FD8018C910E94A129F701D6
:1059200081937F01D8016D928D01E4CF8A2DA72C40
:10593000782E740100E117E0C72CD12CC8018051EA
:1059400097408C159D0554F46B2DF70181917F01D3
:105950000E94A129D8018D938D01F0CFE0E1F7E0FD
:1059600080E090E04A2D50E09A012C193D096889A9
:105970007989260F371F841795070CF082CFD9013C
:10598000A80FB91F719150966C9150976727509648
:105990006C930196F0CF812C912CF12C3B81C32E7E
:1059A000D12C02EB1CE0532E5A948C149D04BCF4B1
:1059B000F801E819F90944916A2D888599850E94B2
:1059C000112A811108C0EF2DF0E0EF5AF84F852D14
:1059D00088198083F3946FEF861A960AE6CF2A2DF2
:1059E00030E0A901415051098F2D90E04817590727
:1059F00009F0D5CEEA85FB8580E090E02F5A384F3C
:105A00008215930544F44191D901A80FB91F11974C
:105A10004C930196F5CF39803F0C81E080932007AD
:105A200041E6842E47E0942E51E2E52E57E0F52E14
:105A300021E537E03A83298300E010E0232D30E0B0
:105A40003F832E83560131E0A31AB1082E813F8196
:105A5000205F384F29012E813F81021713079CF5E3
:105A6000A981BA818D91BA83A983F501E81BF10957
:105A7000ED54F44F2490F70111927F010F5F1F4FF7
:105A80003F01F30132979081622DD3018E913D0148
:105A90009E870E94A1299E858927F3018083F1E2D8
:105AA0006F16F7E07F0669F7622D809120070E944C
:105AB000A12980932007D4018D914D01F201E01BB3
:105AC000F10B8083C8CF22242394230CE1E3F7E079
:105AD000432C440C512C3FEDE32EFF24FA94B701E4
